:020000041000EA
:10000000002008205D0100101B0100101D010010E0
:100010001101001011010010110100101101001058
:100020001901001019010010190100101F01001022
:10003000110100101901001021010010230100100E
:100040001101001011010010110100101101001028
:100050001101001011010010110100101101001018
:100060001101001011010010110100101101001008
:1000700011010010110100101101001011010010F8
:1000800011010010110100101101001011010010E8
:1000900011010010110100101101001011010010D8
:1000A00011010010110100101101001011010010C8
:1000B00011010010110100101101001011010010B8
:1000C00011010010110100101101001011010010A8
:1000D0001101001011010010110100101101001098
:1000E0001101001011010010110100101101001088
:1000F0001101001011010010110100101101001078
:100100001101001011010010110100101101001067
:10011000EFF30580103800BE00BE00BE00BE00BE7A
:1001200000BE00BEF2EB8871905B0910B05B091055
:10013000A001001090A31AE7D3DEFFFF42012110B7
:10014000FF0100009C8B0900793512AB4FF00000D5
:100150001E49086006C881F3088810474FF05040D8
:10016000006810B14FF00000F2E70DA40ECC00299A
:1001700002D000F012F8F9E71549164A002000E015
:1001800001C19142FCD11449884714498847144958
:10019000884700BEFDE701C901C29A42FBD3704700
:1001A000B05B09101001002034320020D48C0910FB
:1001B0000000082000000820D48C0910001008203E
:1001C00000100820000000007047000008ED00E06B
:1001D0003432002030E7002055CE001035020010E8
:1001E0004DCE0010F8B500BF064B0749C91A89105B
:1001F00048BF0131491003D0044B0BB101481847E7
:10020000704700BF3432002034320020000000006C
:1002100008B5054B1BB105490548AFF30080BDE8A3
:100220000840FFF7E1BF00BF000000008CD90020AC
:1002300070D2041008B500F005F800F005F80020B1
:1002400008BD00BF00F054B900F0D2BA38B5114C67
:10025000A4F5007554F8083C203C04F110018BB162
:10026000032208469847AC42F4D10B4CA4F1800518
:10027000A36853B1214620460322103C9847AC4264
:10028000F6D138BDAC42E5D1EFE7103CAC42EFD13E
:1002900038BD00BFF0340020E032002008B501F086
:1002A00055F9012001F010F9034809F081F8BDE883
:1002B0000840014808F06CBA80440020054A134603
:1002C00053F8080B984203D0916801310BF0C2B982
:1002D000704700BF703D0020034B186810B1242107
:1002E0000BF0B8B9704700BFD83D002010B50849E1
:1002F0000446006801F022FD00B910BD24682046C4
:1003000002F0DEF801462046BDE8104001F002BFD1
:1003100080440020012A06D0022A0AD0032A00D0F5
:1003200022B1002070470160002070470260002069
:1003300070470B6803600020704700BF2DE9F04153
:1003400006465B4AC2B0D2E8AF3F13F001041FD0AB
:10035000584D02AC0023584A584FE260584A256075
:10036000C4E90132D7E8AF3F13F0010517D00123EC
:100370004FF4167231465348009400F095FCA36880
:100380001BB1032221462046984742B0BDE8F081C8
:10039000104641F0F9FB474D88B902ACDAE7384620
:1003A00041F0F2FB0028E2D02946464800F0BAFBB3
:1003B00045484AF0A5F8384641F002FCD7E705F178
:1003C000080314202B600BF041F913230746DFF8D4
:1003D0001CC1C474C5E901332860BCE80F00FB6090
:1003E000BCF80030DFF8F0E03B829CF80230386067
:1003F0007960BA60BB74DEE8AF3F13F001070DD03F
:10040000DFF8E48002AC00233048C5F818802B7771
:100410004AF076F8264841F0D3FB9BE7704641F05E
:10042000B3FBDFF8C48008B902ACECE7404609F042
:100430002DFD274927484BF02DFD20B902AC264859
:1004400041F0BEFBDFE740464CF0A6FE4FF4805182
:100450004FF47F104CF0A4FE4FF480511F484CF035
:100460009FFE4FF480511E484CF09AFE02AC4FF4B0
:1004700080511C484CF094FE0F221549E77320462A
:100480004BF012FCF022FF2106A84BF01DFB4FF4AD
:100490007F1738464FF48072214607F580774CF07D
:1004A00033FEB7F5800FF4D10F484CF065FEC6E778
:1004B000E8390020703D0020ED020010283A0020AD
:1004C00015030010483200204D020010BD0200103C
:1004D000F848051000C03F10203A002000D03F002F
:1004E00000E03F0000F03F00103E002070D20410FA
:1004F000F0B5C1B001F032F8AB48D0E8AF3F13F02F
:10050000010400F095806D46A84802F035F80022FD
:100510002846A64901F0B0FE00231A4695F8971028
:10052000A34C61F3070261F30F22D5F89F1095F8F1
:100530009900C4F80E10D5F8B8102372C4F826102C
:10054000B5F8BC10618595F8B310C91A18BF012120
:1005500084F8671095F89A1060F3070361F30F238E
:1005600060F3174361F31F63D5F8A31004F168002B
:10057000C4F8121095F8981061F3174261F31F62E6
:100580001343D5F8A720D5F89B10C4F81620D5F84A
:10059000AB20C4F80A10D5F89710C4F81A2063608D
:1005A000D5F8AF20D5F8B43021600DF10101C4F8C1
:1005B0001E20C4F8223002F0C7FA80F00100C0B259
:1005C00084F80001002840F08E807A480EA902F0DD
:1005D000BBFA80F00100C0B284F8010100286ED19E
:1005E00075480DF16F0102F037FB80F00100C0B2D9
:1005F00084F8020100285CD170480DF1830102F0FB
:100600002BFB80F00100C0B284F8030100284AD11E
:100610006B4CD4E8AF3FDB0739D5644801F050FF9D
:100620000146634A674841B0BDE8F04002F06CBE45
:1006300041F0AAFA00283FF466AF5C4F142007F19E
:1006400008033B600BF002F8132305465E4EC474AA
:10065000C7E9013338600FCEEB603388DFF880C123
:100660002B82B37828606960AA60AB74DCE8AF3F86
:1006700013F001044DD06D46544E00235448BE6122
:100680003B7749F03DFF484841F09AFA3CE7204665
:1006900041F07AFA0028C0D04E4849F031FF204698
:1006A00041F08EFAB9E745480DF1830102F0EEFA08
:1006B000AEE741480DF16F0102F0E8FA9CE73D48D2
:1006C0000EA902F08BFAD4E930126420D4F8B830C5
:1006D00000FB01F100FB02F200FB03F3C4E930125E
:1006E000C4F8B8307CE70DF1010104F1680002F0B4
:1006F00075FAD4E922126420D4F8803000FB01F1AD
:1007000000FB02F200FB03F3C4E92212C4F88030BC
:100710005BE7604641F038FA2C4E08B96D46ACE70D
:10072000304609F0B3FB2C492C484BF0B3FB20B901
:100730006D462B4841F044FA9FE730464CF02CFDC3
:100740004FF480514FF47F104CF02AFD4FF480514C
:1007500024484CF025FD4FF4805123484CF020FDF7
:100760004FF4805121484CF01BFD0F221A49684676
:100770008DF80F404BF098FAF022FF2104A86D4647
:100780004BF0A2F94FF47F1420464FF480722946B3
:1007900004F580744CF0B8FCB4F5800FF4D10B482C
:1007A0004CF0EAFCC5E700BFE8390020703D0020AE
:1007B0008044002020450020584500206C45002042
:1007C000F0390020D83D002070D20410103E0020E7
:1007D000BD020010D9020010F848051000C03F10FB
:1007E000203A002000D03F0000E03F0000F03F0032
:1007F00070B582B00CF0F2FD2F480CF065FE2F4E64
:10080000D6E8AF3F13F0010439D02D4800F046FA86
:10081000FFF794FD2B4CD4E8AF3FDB073FD5012316
:10082000294A01A900201568ADF804300DF01CF923
:1008300010E0234800F040FC2B6800212846234AA2
:100840005B6898474FF0FF3000210DF087F90120D9
:1008500009F070FFD6E8AF1F11F00104E9D1174885
:1008600041F092F90028E4D02146154800F05AF9E9
:10087000174849F045FE114841F0A2F9D9E7304642
:1008800041F082F90028C0D021460D4800F04AF915
:100890000F4849F035FE304641F092F9B5E7204661
:1008A00041F072F90028BAD00A4849F029FE2046E2
:1008B00041F086F9B3E700BF9D020010283A0020FE
:1008C00048320020F0390020D83D0020804400202C
:1008D0004D020010D90200102DE9F0434FF480338F
:1008E00000254FF0020801275C4C5D495D4A89B044
:1008F000C4E900125C4A5D48E2605D4A5D4EC4E9AD
:1009000004025D4ADFF878C1C4E906625B4AC4E9C3
:100910001A53C4E92053A360C4F85A5004F12C00C0
:10092000C4E91C55C4E91E55A4F84450C4F8465007
:10093000C4F84A50C4F84E50C4F85250C4F8565047
:1009400084F85D5084F85E80A4F85F50C4F862506B
:10095000A4F8665084F86150C4E908C202F1043278
:10096000C4E92433C4E92853C4E92E53C4E932331B
:10097000C4E93653C4E93853C4E93A35C4E93C35CF
:10098000A262C4F89830C4F8D030C4E92255C4E952
:100990002A55C4E92C55C4E93055A4F89C7084F854
:1009A0009E50A4F8D47084F8D650C4E93E33C4F8FD
:1009B000005109F06BFA04F1340009F067FA04F110
:1009C0003C0009F063FA04F12C004CF0E5FBCDE9A2
:1009D0000255059501958DF81B508DF81C800495E6
:1009E000CDF817500DF1040CBCE80F00BCE8030073
:1009F000C4F8560004F12C0084F85E80C4F8465018
:100A0000C4F84A50C4F84E50C4F85250C4F85A10B2
:100A10004CF0B2FB04F16203C3E88F7FA3F12E0018
:100A20004CF0BAFBADF80450A4F8445004F1630351
:100A3000C3E88F7FA3F12F004CF09EFB04F13C0034
:100A40004CF0AAFB04F13C00A4F85F5084F861501C
:100A500009B0BDE8F0434CF08FBB00BF80440020DC
:100A6000010204080509060A02000400080010003B
:100A70002000400080000001000200040203040581
:100A80000008000138B5114CA4F5007554F8083C75
:100A9000203C04F110018BB1032208469847AC4278
:100AA000F4D10B4CA4F18005A36853B12146204634
:100AB0000322103C9847AC42F6D138BDAC42E5D198
:100AC000EFE7103CAC42EFD138BD00BFF03400205E
:100AD000E032002038B5114CA4F5007554F8083CFC
:100AE000203C04F110018BB1032208469847AC4228
:100AF000F4D10B4CA4F18005A36853B121462046E4
:100B00000322103C9847AC42F6D138BDAC42E5D147
:100B1000EFE7103CAC42EFD138BD00BF9837002062
:100B2000883500202DE9F04F0022044600250126DB
:100B3000002383B0C0E9042366603046257201912A
:100B400008F046FEA061304608F042FEA1694F4B16
:100B5000E061194403446362216220222946C4E90A
:100B60000B55C4E90D55C4E90F55C4E91155C4E945
:100B70001355C4E91555C4E91755C4E91955C4E915
:100B80001B55C4E91D55C4E91F55C4E92155C4E9E5
:100B90002355A56204F1A800C4E92555C4E92755E9
:100BA000C4F8A4504AF090FF2946202204F1C8005E
:100BB0004AF08AFF2946202204F1E8004AF084FF27
:100BC0002946202204F584704AF07EFF294620221F
:100BD00004F594704AF078FF2946202204F5A470A9
:100BE0004AF072FF2946202204F5B4704AF06CFFE7
:100BF0002946202204F5C4704AF066FF29462022C7
:100C000004F5D4704AF060FF2946202204F5E47010
:100C10004AF05AFF2946202204F5F4704AF054FFA6
:100C20002946202204F502704AF04EFF2946202270
:100C300004F50A704AF048FF2946202204F5127094
:100C40004AF042FF2946202204F51A704AF03CFF80
:100C50002946202204F522704AF036FF019A0C4BF7
:100C6000AA4214BF30462846304406FA00F60CBFAC
:100C70000849094920601E6408F020FE206801210F
:100C800008F0EAFD204603B0BDE8F08F544600208E
:100C900000200B40C5130010791300100346406874
:100CA000421C5A60704700BF2DE9F04F0D460446C4
:100CB000416A89B0EFF3108872B6D1E8CF6F012096
:100CC000002EFAD1C1E8460F002EF6D1BFF35F8F98
:100CD00004F1A80604F52A77B74200F01C81D4F885
:100CE000A8108D4200F09580D4F8C8108D4200F015
:100CF0009080D4F8E8108D4200F08B80D4F8081171
:100D00008D4200F08680D4F828118D4200F0818059
:100D1000D4F848118D427CD0D4F868118D4278D037
:100D2000D4F888118D4274D0D4F8A8118D4270D0B7
:100D3000D4F8C8118D426CD0D4F8E8118D4268D037
:100D4000D4F808128D4264D0D4F828128D4260D0B5
:100D5000D4F848128D425CD0D4F868128D4258D035
:100D6000D4F88812A94254D00121206881409248C9
:100D700001649249D4F8C000896A002800F0D38049
:100D8000D4F8E000002800F0D280D4F80001002858
:100D900000F0D180D4F82001002800F0D180D4F8F0
:100DA0004001002800F0D180D4F86001002800F054
:100DB000D180D4F88001002800F0D180D4F8A001BF
:100DC000002800F0D180D4F8C001002800F0D180C4
:100DD000D4F8E001002800F0D180D4F80002002807
:100DE00000F0D180D4F82002002800F0D180D4F89F
:100DF0004002002800F0D180D4F86002002800F002
:100E0000D180D4F88002002800F0D180D4F8A0026C
:100E100048B10023626AC2E88F3F88F3108800203F
:100E200009B0BDE8F08F04F5227904F1C80B002069
:100E30004FF47A7C8646002BE2FB0C1E08BF02466C
:100E4000129B0DF1100A9B680490C9E9021ECAE9C1
:100E500001000790C9F80420002B4FD002221299FC
:100E600050469847129B0DF1080CD3E902E3019319
:100E7000D9F8183009F1100206939AE803008CE8BB
:100E8000030092E803008AE803009CE8030082E87C
:100E900003000199D9F81C20C9F818E0C9F81C1002
:100EA00007921BB10322514650469847C9F800509B
:100EB0005D46AB694BB1B369F3B1A868B168EA6844
:100EC000F368884272EB030316D32035AF42F0D1AA
:100ED000B74207D0B3692BB12368B168374A0433EE
:100EE00042F823100023626AC2E88F3F88F310881B
:100EF000012009B0BDE8F08F2E46E6E70DF1080CA1
:100F000009F110029AE8030082E803008CE803006C
:100F1000C9E90633CAE70123206827498340274AE5
:100F20000B64936A75E7B14604F1C80B7FE704F1DF
:100F3000C80BD9467BE704F1E80904F1C80B76E752
:100F400004F5847904F1C80B71E704F5947904F190
:100F5000C80B6CE704F5A47904F1C80B67E704F546
:100F6000B47904F1C80B62E704F5C47904F1C80B45
:100F70005DE704F5D47904F1C80B58E704F5E4798A
:100F800004F1C80B53E704F5F47904F1C80B4EE7FC
:100F900004F5027904F1C80B49E704F50A7904F174
:100FA000C80B44E704F5127904F1C80B3FE704F5D8
:100FB0001A7904F1C80B3AE700200B4000000B40FF
:100FC0002DE9F043036A04460F4687B0EFF310881B
:100FD00072B6D3E8CF1F01220029FAD1C3E8412F0E
:100FE0000029F6D1BFF35F8F036B00F128053BB3F7
:100FF000036C00F138051BB3036D00F14805FBB12C
:10100000036E00F15805DBB1036F00F16805BBB159
:10101000D0F8803000F1780593B1D0F8903000F12D
:1010200088056BB1D0F8A03043B10020236AC3E833
:101030008F0F88F3108807B0BDE8F08300F19805A2
:101040000023D7F8089002AE02930593C6E9013356
:10105000B9F1000F26D0394602223046C847D7E9F9
:101060000221AF68AA600497EA68E96096E8030085
:10107000CDE9000195E80300059286E80300DDE96B
:10108000000185E803001FB1032231463046B8470E
:101090000023226AC2E88F3F88F31088012007B03E
:1010A000BDE8F08396E80300C5E90299CDE90001A7
:1010B00085E80300ECE700BF2DE9F043036A07462B
:1010C00085B0EFF3108672B6D3E8CF1F0122002956
:1010D000FAD1C3E8412F0029F6D1BFF35F8F00F1A9
:1010E000280400F1A808A04539D00025A368002BEA
:1010F00035D0022221466846CDE90055CDE902559A
:101100009847D4E90232CDE902322BB103222146BD
:1011100020469847C4E902553B6AC3E88F5F86F3CF
:101120001088029B002B27D0039B684698473B6A98
:10113000EFF3108672B6D3E8CF1F01220029FAD14F
:10114000C3E8412F0029F6D1BFF35F8F029B7BB12B
:10115000032269466846103498474445C6D10023A7
:101160003A6AC2E88F3F86F3108805B0BDE8F08385
:1011700010344445BAD1F2E740F048FE10B5114CA6
:101180002068B8B1EFF3108272B6D0E8CF1F012308
:101190000029FAD1C0E8413F0029F6D1BFF35F8FA3
:1011A000094B2468D86899680023C4E88F3F82F30C
:1011B000108810BD012008F00BFB044B1844206080
:1011C000E0E700BF383E002000000B4054460020FE
:1011D00001232DE9F04F0168654A8B408BB0D36342
:1011E0000746FFF7CBFF7B6A84460846EFF3108281
:1011F00072B6D3E8CF4F0121002CFAD1C3E8441FC7
:10120000002CF6D1BFF35F8F97F80890B9F1000F6B
:1012100040F0A58007F1A80A07F52A7ED645934637
:1012200007F1C8056BD0CDE903E5CDF814A04D4614
:10123000E246B94607F1B80407F52E7806AE0190EC
:1012400032E04FF47A7207FB02F254F8083C9B1824
:1012500044F8083C54F8043C43F1000344F8043CCF
:101260000022D9F82430C3E88F2F8BF31088314641
:101270004846FFF7A5FED9F82430EFF3108B72B67D
:10128000D3E8CF1F01220029FAD1C3E8412F00295A
:10129000F6D1BFF35F8F089B1BB103223146304666
:1012A00098472034444554D0A368002BF9D054E922
:1012B00002128A45019971EB0202F2D30222214601
:1012C0003046C6E90055B56009959847D4E9023221
:1012D00054F80C7CCDE9083204F108020292002F88
:1012E000AFD12BB10322214620469847C4E90277AB
:1012F00044F8105CB4E7AA462035AE4512D0AB697D
:10130000002BF9D0DAF81830002BF4D0A868DAF8FE
:101310000810EA68DAF80C30884272EB0303EBD26B
:10132000AA46E9E7D6450BD0DAF8183043B1DAE936
:101330000223002B04DB3B680E49043341F82320D1
:1013400000237A6AC2E88F3F8BF310880BB0BDE8A8
:10135000F08F4F46DDE903E5DDF814A0CFE7002369
:10136000796AC1E88F3F82F310880BB0BDE8F08F37
:1013700000300B4000000B4010B50F4CD4E8AF3FDD
:10138000DB0704D5BDE810400C48FFF721BF20461D
:1013900040F0FAFB0028F5D001210848FFF7C2FB16
:1013A000074849F0ADF8204640F00AFCBDE810407F
:1013B0000248FFF70DBF00BF2C3A0020F034002098
:1013C000D50A001038B50F4DD5E8AF1F11F0010454
:1013D00004D0BDE838400C48FFF7FABE284640F07C
:1013E000D3FB0028F5D021460748FFF79BFB0748B1
:1013F00049F086F8284640F0E3FBBDE83840024853
:10140000FFF7E6BE283A002048320020850A001087
:10141000F8B5204DD5E8AF1F11F0010429D01E4CBE
:10142000636AEFF3108672B6D3E8CF1F012200295A
:10143000FAD1C3E8412F0029F6D1BFF35F8F257A97
:1014400035B10023626AC2E88F3F86F31088F8BD89
:1014500001272368114A07FA03F3D363FFF78EFECF
:10146000636AC4E904012772C3E88F5F86F31088BA
:10147000F8BD284640F088FB0028D0D02146064819
:10148000FFF750FB064849F03BF8284640F098FB30
:10149000C5E700BF283A00204832002000300B404A
:1014A000850A001008B5FFF7B3FF0BF097FF4FF464
:1014B000FA7009F03FF90CF0CDFABDE808404FF49E
:1014C000FA7009F037B900BF10B504460E484BF06A
:1014D00063FE0E4B13B12046AFF300800C4B13B1EB
:1014E000204600F08FF80B4B2BB14CB9FF20214662
:1014F0000022AFF30080BDE8104003484BF03CBE33
:101500000020FF21F4E700BF183D0020000000008C
:1015100005160010000000004FF0E023014AC3F858
:101520000C2DFEE70400FA0508B509F01BFA29B1F5
:101530004FF47A7200234BF01BFE08BD024AA2FB57
:101540000020800908BD00BFD34D621008B5024BD2
:101550000BB100F047F808BDE515001010B584B0D8
:10156000194803AB02AA01A909F076FB18B916497C
:10157000164808F059F8164C0198DDE9021209F0F6
:10158000A9FA0BF0B9FD23680BB104B010BD2046D9
:1015900008F07CFC20464BF0FFFD0E4B0BB1AFF387
:1015A00000800D4B0BB1AFF300800C4B0BB1AFF3D0
:1015B00000800B4B0BB1AFF30080054804B0BDE8D1
:1015C00010404BF0D9BD00BF80A9030084D20410A5
:1015D000183D002000000000000000000000000096
:1015E0000000000008B50EF03BF820B9034B0122C3
:1015F000C3E88F2F08BD024808F016F8083B00200A
:10160000B8D204100146044BD3E88F3FDBB213B1CC
:1016100000200EF017B87047083B00202DE9F04F6E
:1016200006464FF0000B88469A469146ADF5885D18
:10163000360281B006F57F1540AC6FF30B054FF411
:10164000805205F1805120464AF0A0FD28464FF413
:1016500080514BF0A5FD0F221849684626448DF8AD
:101660000FB04AF021FBF022FF2104A84AF02CFA27
:101670004FF48072694630464AF088FDD8E9001779
:1016800030463A464AF010FB5246494606F807B043
:1016900006F110004AF07AFD2D1B214628194FF45F
:1016A00080724BF031FD04F580740DF58853A34230
:1016B000F3D10DF5885D01B0BDE8F08FF848051055
:1016C0002DE9F04F00210824C5B0B84B07AE092A18
:1016D0008DF82410054693E803001746CDE905640C
:1016E00086E8030040F25881632A40F29C80C922B8
:1016F000AF490DAC11A80B944AF048FD64230321B7
:10170000AC4AA2FB0702520903FB12730DEB430321
:10171000174693F8452093F844308DF836208DF81D
:1017200035303037FFB200220B9B0C918DF83470AE
:101730005A54DDF81480DDF818A0DDF83090B0457B
:101740000AEB090700F0F680079BDDF82CB09F42FA
:101750007AD9A34500F0B0800D9A974240F2898073
:101760006FF00042A2EB0A02914500F2AE80B04554
:1017700000F0FD80002FC0F23C815A00B7EB430F10
:101780000292C0F0AC80781C58BF029700F1F38041
:1017900009F05CFF059B8046BAF1000F00F0D7808E
:1017A000BAF1010F00F0F0801946524603934AF057
:1017B000EDFC039BBBF1000F03D0B9F1000F40F02B
:1017C000CA80B34204D007991846013109F042FF9C
:1017D000029BCDF8148007930023069708F8073082
:1017E000059B05F10800B342069F286000F0AA801F
:1017F0002B60079BAB6000230B986F60A04205969F
:1018000006938DF81C3003D00D99013109F022FFA9
:101810000598B04203D00799013109F01BFF284613
:1018200045B0BDE8F08F62490DEB4708C9220DAC09
:1018300011A80B944AF0AAFC98F84530022198F8B8
:1018400044708DF835306EE76FF00043A3EB0A0368
:1018500099453AD8B9F1000FBED0B9F1010F08EBA4
:101860000A0035D04A4659464AF090FCDDF814800B
:10187000B2E76FF00043A3EB09039A4500F2B6808C
:10188000C34504D80BEB0903984540F2A480B9F195
:10189000000F38D1002F42D100230C970BF80730EE
:1018A0000B9B05F10800A3420C9F28606FD00D9A96
:1018B0002B60AA606F60ABE70F2F15D96FF0004265
:1018C000A2EB0A0291457FF655AF3B4840F06AFA19
:1018D0009BF8003008F80A30DDF814807CE7002A15
:1018E00049DB029B581C53E76FF00043A3EB09034D
:1018F0009A457BD8A04503D304EB090398456AD9E0
:10190000B9F1000F0BD0BAF1000FC5D0B9F1010F3A
:101910000BEB0A005AD04A4659464AF057F8BAF13A
:10192000010F2AD05846524641464AF02FFCDDF8B6
:101930002CB0B1E70F2FDDF82CB085D9A3453DD0F1
:101940000F2309E731467A1C4AF020FC53E7BBF12C
:10195000000F3FF436AFB9F1010F08EB0A001FD0BA
:101960004A46594603934AF011FC039B29E79F42DC
:101970007FF670AFFEE640F0EDF998F800308BF896
:101980000030DDF82CB087E71A78027012E72146A4
:101990007A1C4AF0FBFB8DE70DAC01210B94C0E6ED
:1019A0009BF8002008F80A200BE700BFD8D20410EB
:1019B00030D304101F85EB5100D30410974218DB7D
:1019C0001D2F3FF6E0AE1E2302938AE79BF80030FE
:1019D0000BF80A30A3E7594643460022CDE900A997
:1019E0000BA840F07DFADDF82CB055E7024840F036
:1019F000D9F9024840F0D6F9E4D2041018D3041003
:101A00002DE9F04F90460A24C5B007AE334647464D
:101A100006940024B849054607C903C3092F1A8054
:101A200005968DF826400DAC40F25681632F4FF09D
:101A3000C90240F29A80B14911A80B944AF0A6FB62
:101A400064230321AE4AA2FB0802520903FB12835E
:101A50000DEB4303174693F8452093F844308DF877
:101A600036208DF835303037FFB200220B9B0C91B9
:101A70008DF834705A54DDF81480DDF818A0DDF8C4
:101A80003090B0450AEB090700F0F480079BDDF8C1
:101A90002CB09F4278D9A34500F0AE800D9A9742B2
:101AA00040F287806FF00042A2EB0A02914500F2FB
:101AB000AC80B04500F0FB80002FC0F238815A00A6
:101AC000B7EB430F0292C0F0AA80781C58BF029770
:101AD00000F1F18009F0BAFD059B8046BAF1000FD4
:101AE00000F0D580BAF1010F00F0EE8019465246A1
:101AF00003934AF04BFB039BBBF1000F03D0B9F1FA
:101B0000000F40F0C880B34204D007991846013155
:101B100009F0A0FD029BCDF81480079300230697DF
:101B200008F80730059B05F10800B342069F2860BE
:101B300000F0A8802B60079BAB6000230B986F60C0
:101B4000A042059606938DF81C3003D00D99013103
:101B500009F080FD0598B04203D00799013109F0E2
:101B600079FD284645B0BDE8F08F64490DEB480883
:101B700011A80B944AF00AFB98F84530022198F816
:101B800044708DF8353070E76FF00043A3EB0A0323
:101B900099453AD8B9F1000FC0D0B9F1010F08EB5F
:101BA0000A0035D04A4659464AF0F0FADDF814806A
:101BB000B4E76FF00043A3EB09039A4500F2B48049
:101BC000C34504D80BEB0903984540F2A280B9F154
:101BD000000F38D1002F42D100230C970BF80730AB
:101BE0000B9B05F10800A3420C9F28606FD00D9A53
:101BF0002B60AA606F60ADE70F2F15D96FF0004220
:101C0000A2EB0A0291457FF657AF3E4840F0CAF872
:101C10009BF8003008F80A30DDF814807EE7002ACF
:101C200049DB029B581C55E76FF00043A3EB090307
:101C30009A4579D8A04503D304EB0903984568D9A0
:101C4000B9F1000F0BD0BAF1000FC5D0B9F1010FF7
:101C50000BEB0A0058D04A46594649F0B7FEBAF194
:101C6000010F2AD05846524641464AF08FFADDF815
:101C70002CB0B1E70F2FDDF82CB085D9A34533D0B8
:101C80000F230BE731467A1C4AF080FA55E7BBF187
:101C9000000F3FF438AFB9F1010F08EB0A001ED076
:101CA0004A46594603934AF071FA039B2BE79F4239
:101CB0007FF670AF00E740F04DF898F800308BF8F1
:101CC0000030DDF82CB087E71A78027014E721465F
:101CD0007A1C4AF05BFA8DE701210B94C3E69BF86E
:101CE000002008F80A200EE7974220DB1D2F3FF660
:101CF000ECAE1E23029394E7FCD3041030D30410FF
:101D00001F85EB5100D304109BF800300BF80A300C
:101D1000A5E7594643460022CDE900A90BA840F0AB
:101D2000DFF8DDF82CB057E7024840F03BF80248F6
:101D300040F038F8E4D2041018D304102DE9F04133
:101D40000C4601F12C06054630464BF025FA94F876
:101D50004670B4F8478000236234C4E88F3F3046B1
:101D60004BF00AFA2A4ED6E8AF3FDA0747EA0844B2
:101D700040D5284F230236D53B68A34233D1264AAB
:101D800013780133DBB2042B3FD90020234B1070B2
:101D900003F1600102E008338B4228D053F8082C8D
:101DA000A242F8D113F8042C062A15D0052A13D024
:101DB000072A11D0082A0FD00A2A0DD0642A0BD086
:101DC000012A09D0022A07D0042A05D0032A03D009
:101DD000092A01D00B2ADED12B7F934207D00120A4
:101DE0002A77BDE8F08100220B4B3C601A7000207E
:101DF000BDE8F08130463FF0C7FE064F0028B9D05D
:101E000030463C603FF0DCFEB4E71370EFE700BF04
:101E1000EC390020903D0020F7E600201049051025
:101E20001378013B072B01D9002070472DE9F043BF
:101E3000054687B01646FFF735FB0022294668465F
:101E4000D5F81880FFF7DCFD019B0E2B26D8009CEF
:101E50003A4920464AF01EF808B340464BF09CF938
:101E60000127374CDDF8009009E0204649464AF04A
:101E700011F804F5807440B101373F2F5AD0204645
:101E80002E494AF007F80028EFD1384601233246A0
:101E90006946FFF7C3FB40464BF06EF9009C02AF6A
:101EA000BC4204D002992046013109F0D3FB2946F7
:101EB00068463278D5F81880FFF702FC019B0E2B9C
:101EC00026D8009C1D49204649F0E4FF08B340464F
:101ED0004BF062F901251A4CDDF8009009E020462C
:101EE000494649F0D7FF04F5807440B101353F2DD4
:101EF0001CD02046114949F0CDFF0028EFD12846DB
:101F000032466946BE23FFF789FB40464BF034F961
:101F1000009CBC4204D002992046013109F09AFB92
:101F2000FFF7FAFA012007B0BDE8F08340464BF016
:101F300023F9EDE740464BF01FF9AFE7F8480510ED
:101F400000C13F102DE9F04F1F461B7889B0013BBF
:101F5000072B8DF8071000F2C580CBB25A1E0A2A53
:101F6000054604D9642B1CBF06238DF80730FFF704
:101F700099FA654B0DF1100893E8070043460B26CC
:101F80000024CDF8088003C3D5F818A023F8022B4D
:101F90004FEA124C83F800C0504603968DF81B4060
:101FA00001264BF0F9F8594CDDF808900AE020467C
:101FB000494649F06FFF04F5807448B101363F2E61
:101FC00000F098802046524949F064FF0028EED185
:101FD0000DF108093046012349460DF10702FFF7CC
:101FE0001DFB50464BF0C8F80298404503D00499B9
:101FF000013109F02FFB002229464846D5F818B0D8
:10200000FFF7FEFC039B0E2B26D8029C404920467E
:1020100049F040FF08B358464BF0BEF801263B4C50
:10202000DDF808A009E02046514649F033FF04F5E9
:10203000807440B101363F2E58D02046344949F0D3
:1020400029FF0028EFD1304601233A464946FFF7E1
:10205000E5FA58464BF090F8029C444504D00499A8
:102060002046013109F0F6FA294648463A78AE6929
:10207000FFF726FB039B0E2B26D8029C2449204603
:1020800049F008FF08B330464BF086F801251F4C95
:10209000DDF808A009E02046514649F0FBFE04F5B2
:1020A000807440B101353F2D2AD02046184949F0AF
:1020B000F1FE0028EFD128463A464946BE23FFF7F5
:1020C000ADFA30464BF058F8029C444504D00499D0
:1020D0002046013109F0BEFAFFF71EFA012009B0CF
:1020E000BDE8F08F002009B0BDE8F08F58464BF0F6
:1020F00043F8B1E750464BF03FF80DF1080973E79C
:1021000030464BF039F8DFE708D4041000C13F1027
:10211000F84805102DE9F0414B1E88B00A2B044603
:102120008DF8071005D9C9B2642902D008B0BDE8FE
:10213000F081FFF7B7F9214B04AE93E807000B23BA
:102140000393334603C3150C23F8022B0022D4F863
:1021500018801D70404602968DF81B2001254BF01B
:102160001BF8174C029F09E02046394649F092FEC1
:1021700004F5807440B101353F2D1BD02046114934
:1021800049F088FE0028EFD1284601230DF107020F
:1021900002A9FFF743FA40464AF0EEFF0298B04228
:1021A00003D00499013109F055FAFFF7B5F908B0E9
:1021B000BDE8F08140464AF0DFFFEFE708D40410A5
:1021C00000C13F10F8480510F0B587B019B10124DF
:1021D000204607B0F0BD03460A46014668469F699F
:1021E000FFF70EFCDDE900430E2B2AD820461F49DD
:1021F00049F050FE28B338464AF0CEFF1C4C1D4E25
:10220000009D08E02046194949F044FE04F5807419
:1022100000B3B4421ED02946204649F03BFE0028B8
:10222000F0D13846247C4AF0A7FF009802AB9842D0
:1022300003D00299013109F00DFA631E072BC7D9AB
:10224000C5E702AB9C42C2D002992046013109F099
:1022500001FABCE738464AF08FFF009802AB98427B
:10226000B5D00299013109F0F5F9B0E7F848051049
:1022700000C13F1000FF3F102DE9F04706460D4614
:10228000B6B0002A52D006AF4FF00108384600F031
:1022900011FB294642466846D5F81890FFF710FA18
:1022A000019B0E2B1DD8009C4C49204649F0F2FDA5
:1022B000C8B902AB9C4204D002992046013109F012
:1022C000C9F99DF81830434574D1BE2239463046CD
:1022D00049F05CFF304636B0BDE8F08748464AF02A
:1022E0004BFF009CE5E748464AF056FF3C4CDFF8C0
:1022F000F4A0009D09E02046384949F0CBFD04F5E3
:1023000080740028EAD05445E8D02946204649F098
:10231000C1FD0028EFD104F11001BE22384649F07A
:1023200035FF48464AF028FF009CC2E706AF384612
:10233000D1F818A0FFF764FBDDE906430E2B2FD878
:102340002046264949F0A6FD50B350464AF024FFE6
:10235000234CDFF89090DDF8188008E020461F49F4
:1023600049F098FD04F5807458B34C4529D0414696
:10237000204649F08FFD0028F0D1504694F8108097
:102380004AF0FAFE069808AB984203D0089901314A
:1023900009F060F908F1FF33072B7FF677AF73E799
:1023A00008AB9C423FF470AF08992046013109F018
:1023B00051F969E7304600F07DFA304636B0BDE8A5
:1023C000F08750464AF0D8FE069808AB98423FF492
:1023D0005BAF0899013109F03DF955E7F848051060
:1023E00000C13F1000FF3F102DE9F0430C46164698
:1023F000B7B0054606A800F05DFA214632466846A9
:10240000A769FFF75DF9019B0E2B1DD8009C25499C
:10241000204649F03FFDC8B902AB9C4204D0029966
:102420002046013109F016F99DF81830B34231D138
:10243000BE22284606A949F0A9FE284637B0BDE8C5
:10244000F08338464AF098FE009CE5E738464AF0AB
:10245000A3FE154CDFF85490DDF8008009E020461B
:10246000104949F017FD04F580740028E9D04C4567
:10247000E7D04146204649F00DFD0028EFD104F198
:102480001001BE2206A849F081FE38464AF074FECB
:10249000009CC1E7284600F00DFA284637B0BDE899
:1024A000F08300BFF848051000C13F1000FF3F1047
:1024B000481E642918BF0A2894BF012000207047D5
:1024C0002DE9F047067F86B01EB1304606B0BDE864
:1024D000F0870DF108080B214346234AD0F81890E5
:1024E0000191054607CA03C3484623F8022B120C84
:1024F0001A70CDF800808DF813601C4C4AF04CFE29
:10250000DFF870A0009F08E02046194949F0C2FC9E
:1025100004F5807418B3544521D03946204649F05B
:10252000B9FC0028F0D14846267C4AF025FE0098E8
:10253000404503D00299013109F08CF8731E0A2B33
:1025400008D9642E06D006231E4630462B7706B0E7
:10255000BDE8F08730462E7706B0BDE8F0874846E4
:102560004AF00AFEE3E700BF08D4041000C13F10A0
:10257000F848051000FF3F102DE9F04FCBB00DF1EA
:10258000300B5B4609260025BE4A8769CDF828B086
:10259000804607CA03C338461A700B968DF8395027
:1025A0000AAC4AF0F9FDB84DDFF8F492266808E06D
:1025B0002846B64949F06EFC05F58075C0B14D4519
:1025C00016D03146284649F065FC0028F0D138463F
:1025D0002D7C4AF0D1FD2068584503D0A168013117
:1025E00009F038F8F82D40F04A814BB0BDE8F08F83
:1025F00038464AF0C1FD2068584500F04081A16886
:10260000013109F027F8D8F8186030464AF0C4FDC7
:102610004FF480514FF47F104AF0C2FD4FF48051C7
:102620009B484AF0BDFD4FF480519A484AF0B8FDEE
:102630004FF4805198484AF0B3FD00230F2293498C
:10264000E373204649F030FBF022FF210EA849F049
:102650003BFA4FF47F1528464FF48072214605F56A
:1026600080754AF051FDB5F5800FF4D130464AF03F
:1026700083FD06238DF80F305B460B260025874A25
:10268000C4F800B007CA03C3D8F8187023F8022BA7
:10269000120C1A7038466660E5744AF07DFD01261A
:1026A000794DD4F800900AE02846494649F0F2FBFB
:1026B00005F5807548B101363F2E00F0DC802846D4
:1026C000724949F0E7FB0028EED13046012321464C
:1026D0000DF10F02FEF7A2FF38464AF04DFD2068CB
:1026E000584503D0A168013108F0B4FF4FF0010A4A
:1026F0000022414620468DF810A0D8F81890FFF728
:102700007FF9636804AF0E2B27D825685F492846F8
:1027100049F0C0FB10B348464AF03EFD5A4D2668CA
:102720000CE02846314649F0B5FB05F5807558B1F7
:102730000AF1010ABAF13F0F00F0B8802846534968
:1027400049F0A8FB0028ECD1504601233A46214627
:10275000FEF764FF48464AF00FFD25685D4504D04A
:10276000A1682846013108F075FF204600F0A2F864
:1027700000260136D8F81830F6B2324641463846BF
:1027800026700193FEF79CFF7B680E2B29D83D68CD
:102790003E49284649F07EFB20B301984AF0FCFCF4
:1027A0004FF0010A384DD7F800900BE02846494613
:1027B00049F070FB05F5807550B10AF1010ABAF1D4
:1027C0003F0F54D02846314949F064FB0028EDD131
:1027D0005046BE2322463946FEF720FF01984AF0B4
:1027E000CBFC3D6806AB9D4204D0B9682846013158
:1027F00008F030FF082EBCD1F8225B4609260025E0
:102800003A70204AC4F800B007CA03C3D8F8188049
:102810001A704046666065744AF0BEFC01261A4D87
:10282000D4F8009009E02846494649F033FB05F505
:10283000807540B101363F2E34D02846134949F007
:1028400029FB0028EFD130463A4601232146FEF706
:10285000E5FE40464AF090FC206858453FF4C5AE7E
:10286000A168013108F0F6FE4BB0BDE8F08F019889
:102870004AF082FCB5E738464AF07EFC2FE7D8F8EC
:102880001860C2E6CCD2041000C13F10F848051011
:1028900000D03F0000E03F0000F03F0008D40410EB
:1028A00000FF3F1040464AF067FCD5E748464AF033
:1028B00063FC52E7002201212DE9F04F4FF0090C93
:1028C00040F6070E42708270C270027142718271CE
:1028D000027242728272C272027342738273C27354
:1028E000027442748274C274027542758275C27534
:1028F000027642768276C276027742778277DFF876
:1029000038B2DFF838A2DFF83892DFF83882854F26
:10291000854E864D864CC171C17780F8202080F8A5
:10292000212080F8222080F8232080F8242080F8BD
:10293000252080F8262080F8272080F8282080F89D
:10294000292080F82A2080F82C2080F82D2080F87B
:102950002E2080F8302080F8312080F8322080F856
:10296000342080F8372080F8382080F8392080F82B
:102970003A2080F83B2080F83C2080F83D2080F809
:102980003F2080F8402080F82B1080F82F1080F82E
:102990003310A0F8351080F83E1080F8412080F800
:1029A000422080F8432080F8442080F8452080F8B9
:1029B000462080F8472080F8482080F8492080F899
:1029C0004A2080F84B2080F84C2080F84D2080F879
:1029D0004E2080F84F2080F8502080F8512080F859
:1029E000522080F8532080F8542080F8552080F839
:1029F000572080F8582080F8592080F85A2080F815
:102A00005B2080F85C2080F85D2080F85E2080F8F4
:102A10005F2080F8602080F8612080F8561080F8F0
:102A2000621080F8632080F8642080F8652080F8C8
:102A3000672080F8682080F8692080F86B2080F893
:102A40006E2080F86F2080F8702080F8712080F868
:102A5000722080F8732080F8742080F8762080F847
:102A6000772080F8782080F8792080F87A2080F824
:102A70007B2080F87C2080F87E2080F87F2080F802
:102A8000802080F8822080F8832080F8661080F80B
:102A90006A10A0F86C1080F8751080F87D1080F82E
:102AA000811080F8842080F8852080F8862080F8C6
:102AB000872080F8882080F88A2080F88B2080F892
:102AC0008C2080F88D2080F88E2080F88F2080F870
:102AD000902080F8922080F8932080F8942080F84D
:102AE0009620144AC0F89BB0C0F89FA0C0F8A390ED
:102AF000C0F8A780C0F8AB70C0F8AF60C0F8B350A2
:102B0000C0F8B740A0F8BBE080F8BDC080F88910DD
:102B100080F8911080F895100170C0F89720BDE8FA
:102B2000F08F00BF00010002000400080100010254
:102B30000304050601020408010002000400080065
:102B4000100020004000800003680A689A4201D00B
:102B5000002070474A6843689A42F9D18A688368BE
:102B60009A42F5D1CA68C3689A42F1D10A690369E9
:102B70009A42EDD14A6943699A42E9D18A698369E7
:102B80009A42E5D1CA69C3699A42E1D10A6A036AE5
:102B90009A42DDD14A6A436A9A42D9D18A6A836AE3
:102BA0009A42D5D1CA6AC36A9A42D1D10A6B036BE1
:102BB0009A42CDD190F8342091F834309A42C7D15E
:102BC00090F8352091F835309A42C1D190F836000E
:102BD00091F83630C31A5842584170472DE9F04FEA
:102BE0008B6A83B04C6A0D6A0193D1F800B00B6B0D
:102BF000D1F804A0D1F80890D1F80C80D1F810E0F9
:102C0000D1F814C08F69CE69CA6AC0E90854019C22
:102C1000C0E900BAC0E90298C0E904ECC0E9067650
:102C2000C0E90A42036391F83430003B18BF012326
:102C300080F8343091F83530003B18BF012380F81C
:102C4000353091F83630003B18BF012380F836301C
:102C500003B0BDE8F08F00BF03680A689A4201D054
:102C6000002070474A6843689A42F9D18A688368AD
:102C70009A42F5D1CA68C3689A42F1D10B690069DA
:102C8000181AB0FA80F04009704700BF70B4CA68E3
:102C90000E684D688C680B69C0E90065C0E90242A6
:102CA00070BC0361704700BF034B186810B124214A
:102CB00008F0D0BC704700BFD83D0020012310B5FC
:102CC0000C4C0370D4E8AF3FDB0703D50A4B186800
:102CD000043010BD20463EF057FF0028F6D00748CC
:102CE00047F00EFC20463EF06BFF034B18680430A3
:102CF00010BD00BFF0390020D83D0020A92C0010E5
:102D00002DE9F04305460E4617461C4683B0BDF834
:102D10002880DFF84490D9E8AF3FDB070CD50C489A
:102D2000294600683B460568CDE900483246AC6854
:102D3000A04703B0BDE8F08348463EF025FF0028D9
:102D4000EDD0044847F0DCFB48463EF039FFE6E7AB
:102D5000D83D0020A92C0010F03900202DE9F043C7
:102D600006460C4617461D4683B0BDF82880DFF89E
:102D70005090D9E8AF3FDB0712D50F4A31461068B3
:102D80003B460668CDE900582246F668B047434600
:102D90002A462146002003B0BDE8F0430BF080BF77
:102DA00048463EF0F1FE0028E7D0044847F0A8FB73
:102DB00048463EF005FFE0E7D83D0020A92C001072
:102DC000F03900202DE9F04104460D4616460E4F1D
:102DD000D7E8AF3FDB070AD50C4A214610682A46E0
:102DE000056833462C69A446BDE8F0416047384683
:102DF0003EF0CAFE0028EFD0054847F081FB384678
:102E00003EF0DEFEE8E700BFF0390020D83D0020AC
:102E1000A92C001070B504460D460D4ED6E8AF3F04
:102E2000DB0708D50B4B2A4618682146BDE87040E1
:102E300003685B69184730463EF0A6FE0028F1D0D3
:102E4000054847F05DFB30463EF0BAFEEAE700BFBA
:102E5000F0390020D83D0020A92C001010B50C4CF2
:102E6000D4E8AF3FDB0706D5BDE81040094B186832
:102E700003689B69184720463EF086FE0028F3D081
:102E8000054847F03DFB20463EF09AFEECE700BFC8
:102E9000F0390020D83D0020A92C001070B5044660
:102EA0000C4DD5E8AF3FDB0707D50B4B2146BDE8FE
:102EB000704018680368DB69184728463EF064FED6
:102EC0000028F2D0054847F01BFB28463EF078FE6C
:102ED000EBE700BFF0390020D83D0020A92C0010FE
:102EE00070B504460C4DD5E8AF3FDB0707D50B4B5B
:102EF0002146BDE87040186803681B6A18472846D9
:102F00003EF042FE0028F2D0054847F0F9FA284684
:102F10003EF056FEEBE700BFF0390020D83D002020
:102F2000A92C001010B50C4CD4E8AF3FDB0706D538
:102F3000BDE81040094B186803685B6A18472046D3
:102F40003EF022FE0028F3D0054847F0D9FA20468B
:102F50003EF036FEECE700BFF0390020D83D0020FF
:102F6000A92C0010054A134653F8080B984203D0C9
:102F70009168013108F06EBB704700BF703D0020C2
:102F800030B5C1B005464AF007F94FF480514FF40F
:102F90007F104AF005F94FF4805116484AF000F9C5
:102FA0004FF4805114484AF0FBF84FF48051134815
:102FB0004AF0F6F800230F22114968468DF80F30C9
:102FC00048F072FEF022FF2104A848F07DFD4FF486
:102FD0007F1420464FF48072694604F580744AF0ED
:102FE00093F8B4F5800FF4D128464AF0C5F841B003
:102FF00030BD00BF00D03F0000E03F0000F03F00C8
:10300000F84805108446024670B5234C056800F563
:10301000637605F000405568D2F8343625F000415B
:10302000014341F3000083EA510300EA04014B40ED
:1030300042F8043B9642ECD1DCF88C431648ACF1E4
:1030400004020CF22C6604F00045D2F8944352F8C6
:10305000043F24F00041294341F3000E83EA510369
:103060000EEA00014B40B242C2F88C33EBD1DCF8DF
:10307000BC39DCF80010DCF8302661F31E030021B7
:1030800082EA530243F3000303405340CCF8BC39B7
:10309000CCF8C01970BD00BFDFB008992DE9F04130
:1030A000ADF6C81D804601AF43F23904BC46012588
:1030B000914E3C600FCE96F800E0904EC8F80200AA
:1030C000C8F80610C8F80A20C8F80E3088F812E0D0
:1030D00084EA947406FB04540135B5F51C7F4CF862
:1030E000044FF5D13846C7F8C059FFF78BFFD7F822
:1030F000C019834B57F82120824882EAD22203EA82
:10310000C213534000EAC3325340013183EA934370
:103110001B0EB1F51C7FC7F8C01988F8063080F087
:10312000BA8057F82120764B82EAD22203EAC213F2
:1031300074485A404B1C00EAC2314A4082EA92422B
:10314000120EB3F51C7FC7F8C03988F8072080F04D
:10315000CC8057F823206A4982EAD22201EAC211C0
:103160004A406849013301EAC2314A4082EA924248
:10317000120EB3F51C7FC7F8C03988F8082080F01C
:10318000AE8057F823205E4982EAD22201EAC211BA
:1031900051405C4A013302EAC1324A4082EA92421B
:1031A000120EB3F51C7FC7F8C03988F80A2080F0EA
:1031B000908057F82320524982EAD22201EAC211B4
:1031C0005140504A013302EAC1324A4082EA9242F7
:1031D000120EB3F51C7FC7F8C03988F80B2072D2E5
:1031E00057F82320464982EAD22201EAC21151400F
:1031F000444A581C02EAC1324A4082EA9242120E04
:10320000B0F51C7FC7F8C00988F80C2055D257F8D4
:1032100020303B4A83EAD32302EAC31239495340A0
:1032200001EAC3314B40421C83EA93431B0EB2F5C3
:103230001C7FC7F8C02988F80D3038D257F82230E3
:103240002F4983EAD32301EAC3114B402D490132B0
:1032500001EAC3314B4083EA93431B0EB2F51C7F56
:10326000C7F8C02988F80E301BD2404657F82230E4
:10327000234983EAD32301EAC311224A4B4002EADD
:10328000C332534083EA93431B0E88F80F300DF688
:10329000C81DBDE8F0813846FFF7B4FED7F8C01965
:1032A0003FE73846FFF7AEFED7F8C029DDE73846DE
:1032B000FFF7A8FED7F8C029C0E73846FFF7A2FEFF
:1032C000D7F8C009A3E73846FFF79CFED7F8C03906
:1032D00086E73846FFF796FED7F8C03969E73846E3
:1032E000FFF790FED7F8C0394BE73846FFF78AFE64
:1032F000D7F8C0392DE700BF684905106589076C0C
:1033000080562C9D0000C6EF0B292DE9F0410546A3
:1033100000F24681002900F06F8102391446092924
:1033200000F2E681DFE811F039005300630073001A
:103330009000AE00150124010A002300282008F0A7
:1033400085F904462822002148F0BEFBAC4B2868D2
:1033500023602C60002800F05181242108F07AF9C4
:103360002C6823681B682046BDE8F04118472C20D4
:1033700008F06CF904462C22002148F0A5FBA14B73
:10338000A14A03CB234643F8242B60622868596086
:103390002C600028E1D19D4BE5E7802008F056F92C
:1033A00004468022002148F08FFB4FF400434FF485
:1033B000C87101229648C4E9093320602868A185B4
:1033C00084F834202C600028C7D1924BCBE7302002
:1033D00008F03CF904463022002148F075FB8E4B82
:1033E000286823602C600028B7D18C4BBBE74C20A9
:1033F00008F02CF904464C22002148F065FB884B6C
:10340000286823602C600028A7D1864BABE74020BA
:1034100008F01CF904464022002148F055FB2246E2
:1034200000231421804842F8240B286863622C6032
:1034300053609360D360136184F82510A363E36342
:1034400000288AD1794B8EE7402008F0FFF8044627
:103450004022002148F038FB224600231421744802
:1034600042F8240B286863622C6053609360D36039
:10347000136184F82510A363E36300287FF46DAF24
:103480006C4B70E7982008F0E1F80646982200217E
:1034900048F01AFB3046684B3022002140F8253BAB
:1034A00048F012FB012186F824104EF60261002339
:1034B0006FF0FE124FF07F30A6F8411010215F4FE1
:1034C000C6F82A00C6F84D20C6F85120B367F36746
:1034D000C6F8803086F8431086F8843006F1550E21
:1034E00007F12008BC460EF1100EBCE80F00C445E1
:1034F00007F110074EF8100C4EF80C1C4EF8082C73
:103500004EF8043CEED13B8806F18500AEF8003061
:10351000BB788EF80230FFF7C1FD0023286886F8DB
:1035200097302E6010B1242108F094F804F166025F
:103530000121C2E88F1F04F16503D3E88F3FDBB29E
:10354000002B4BD12C6823682046BDE8F0411B6856
:103550001847882008F07AF806468822002148F0AB
:10356000B3FA2868364B33602E600028DBD1DDE7E4
:10357000382008F06BF806463822002148F0A4FAFB
:10358000334600222F49286843F8241B2E607262BC
:10359000DA605A609A60C3F80F200028C3D1C5E7EB
:1035A000642929D1E82008F051F8E82200210446D6
:1035B00048F08AFA244B25482360D0E8AF3F13F047
:1035C000010649D0224F676204F12800FFF772F923
:1035D00028682C6000287FF4C0AEB4E7D2E88F3FA3
:1035E000DBB2002BAED094F86730002BAAD004F1E8
:1035F0006402C2E88F1FA5E7BDE8F081154BB2E673
:10360000B0490510A049051014500510814800105C
:10361000905405105555001088550510556200103E
:10362000E0510510454B001030510510D9480010ED
:103630004853051055500010AC4A05107C49051040
:103640003C4D05101056051060570510E839002054
:10365000703D0020913700103EF096FA2C4F002864
:10366000B1D007F1080314203B6007F0EFFF1323EC
:103670008446DFF8BCE0C674C7E901333860BEE8B1
:103680000F00CCF80C30BEF80030DFF89C80ACF8AE
:1036900010309EF80230CCF80000CCF80410CCF8C2
:1036A00008208CF81230D8E8AF3FDB070AD5194E56
:1036B00000231948BE613B7746F022FF17483EF0D1
:1036C0007FFA80E740463EF05FFA124E0028EFD0C6
:1036D000304606F0DBFB1249124848F0DBFB18B914
:1036E00011483EF06DFAE3E73046FFF749FCF7E793
:1036F000402007F0ABFF06464022002148F0E4F9E5
:1037000028680A4B33602E6000287FF40CAF0DE769
:10371000703D0020103E0020652F0010E839002089
:10372000F848051000C03F10203A00200C54051046
:1037300070D2041038B50C4682B1084648F09CFDA2
:103740001F28024628BF1F22C8B102F1010C4FEA10
:103750004C0C4CF4407C1FFA8CFC02E04FF4417C92
:1037600001220A4D611E2B46881811F8012F88424C
:1037700023F8022FF9D10548A5F800C038BD40F262
:10378000023C024D0148A5F800C038BD303D002084
:10379000844610B4064C0CF1040C0FCCACE80F00BE
:1037A00094E80F005DF8044B8CE80F00704700BFF1
:1037B000844A05100246009B928C02201A807047B2
:1037C000704700BF0020704700487047304A05101E
:1037D00000487047D8490510004870470C4A05104A
:1037E000002070472DE9F04F04460D4687B002F1E6
:1037F000620ADAE88F3FDBB253B90AF009F9002810
:1038000041D128460BF030FA98BB07B0BDE8F08FE5
:10381000904602F12C00009049F0BEFC98F8493027
:10382000B8F84760019398F84A3098F846B0029388
:10383000B8F94F30B8F94B90B8F94D700393B8F917
:1038400051800023CAE88F3F00980BF1FF3B49F0FD
:1038500093FCBBF1090F00F29C80DFE81BF0AC0089
:1038600014019A00BE00D000DE009A00F0000201B0
:10387000170002230021284604F1240207B0BDE806
:10388000F04F0BF00DBA0AF0CBF8BAE742F604039A
:1038900042F60802009342F60A0C42F6020142F692
:1038A0000C0A42F60E0E42F6060B4FF4205317F5A3
:1038B000004F00F000817F4238B218F5004F0490AD
:1038C00000F03B81C8F100080FFA88F742F20F7848
:1038D000C145059700F31A81039F474500F3168100
:1038E000B34FB945C0F2A181039FB1488742C0F2EE
:1038F0009C81AF48049F874280F2C98142F2044311
:103900004FF41057009342F2084242F20A4C42F23E
:10391000024142F20C4A42F20E4E42F2064B3B4644
:10392000F00700F1C280A784B00702D562460B46BB
:10393000A184710744BF1346A284320703D543F024
:1039400001039BB2A384F70503D543F040039BB268
:10395000A384B00503D543F080039BB2A384710612
:1039600003D543F480739BB2A384320603D543F49A
:1039700000739BB2A384019A1AB143F010039BB267
:10398000A384029A002A3FF438AF43F02003A384B3
:1039900033E741F2044341F20842009341F20A4CFA
:1039A00041F2024141F20C4A41F20E4E41F2064B05
:1039B0004FF4A0537BE740F204434FF4816200933D
:1039C00040F20A4C40F2024140F20C4A40F20E4EE4
:1039D00040F2064B4FF4806369E741F2040341F281
:1039E0000802009341F20A0C41F2020141F20C0A72
:1039F00041F20E0E41F2060B4FF4805357E70423B9
:103A0000082200934FF00A0C02214FF00C0A4FF0ED
:103A10000E0E4FF0060B002349E742F2040342F278
:103A20000802009342F20A0C42F2020142F20C0A2E
:103A300042F20E0E42F2060B4FF4005337E741F606
:103A4000040341F60802009341F60A0C41F6020114
:103A500041F60C0A41F60E0E41F6060B4FF4C05328
:103A600025E740F6040340F60802009340F60A0CEE
:103A700040F6020140F60C0A40F60E0E40F6060B28
:103A80004FF4006313E742F2044342F2084200930A
:103A900042F20A4C42F2024142F20C4A42F20E4E0B
:103AA00042F2064B4FF4105301E7009B5246F44696
:103AB0005946A38438E718F5004F7DD042F20F73C2
:103AC000C8F1000899450FFA88F857DC039A9A4222
:103AD00054DC374B9945C0F2CA809A42C0F2C78085
:103AE0009845FFF60BAF40F204434FF48067009314
:103AF0004FF4816240F20A4C40F2024140F20C4A1B
:103B000040F20E4E40F2064B3B4609E7294B049A21
:103B10009A426CDA42F604034FF42057009342F6BF
:103B2000080242F60A0C42F6020142F60C0A42F67C
:103B30000E0E42F6060B3B46F2E642F20F73994533
:103B400032DC039A9A422FDC194B994580F294801B
:103B5000184B98423CDA42F204034FF400570093AA
:103B600042F2080242F20A0C42F2020142F20C0A4C
:103B700042F20E0E42F2060B3B46D1E60D4B984543
:103B8000C8DB40F604034FF40067009340F60802D8
:103B900040F60A0C40F6020140F60C0A40F60E0E02
:103BA00040F6060B3B46BBE6024B9842B2DBE8E729
:103BB000F1D8FFFFE1B1FFFF42F20F739945E0DC5E
:103BC000039A9A42DDDC394B994501DB9A428ADA45
:103BD00004230027009308224FF00A0C02214FF023
:103BE0000C0A4FF00E0E4FF0060B3B4698E6059A76
:103BF0009A428FDB44F61F63049A9A42C1DC059A0D
:103C00009A42BEDC41F604034FF4C057009341F6DC
:103C1000080241F60A0C41F6020141F60C0A41F68F
:103C20000E0E41F6060B3B467AE6214B049A9A4269
:103C300091DB059A9A428EDB44F61F63049A9A42FE
:103C4000C6DC059A9A42C3DC41F204034FF4805764
:103C5000009341F2080241F20A0C41F2020141F2E2
:103C60000C0A41F20E0E41F2060B3B4658E6104B91
:103C70009845FFF670AFABE79A4204DA0C4B9842D6
:103C8000FFF669AFA4E79842FFF638AE2BE7059838
:103C9000064FB842FFF632AE049840453FF723AFD7
:103CA000059840453FF71FAF1F4639E6F1D8FFFFA3
:103CB000E1B1FFFF024B0A4653F82110FFF73ABD6E
:103CC000444A0510844610B4064C0CF1040C0FCC89
:103CD000ACE80F0094E80F005DF8044B8CE80F008F
:103CE000704700BF144D0510002070470048704712
:103CF000C44C051000487047304C05100048704710
:103D0000044C0510002070472DE9F04F154604467D
:103D10009DB002F1620BDBE88F3FDBB263BB09F0C1
:103D200077FE002840F0A18100200AF09DFF0028C6
:103D300040F0A38194F89730DBB194F8576094F881
:103D40005980003E18BF012605F1340776423846F7
:103D5000F6B249F021FA85F8448085F845600123E0
:103D60006335C5E88F3F384649F006FA002384F8EA
:103D700097301DB0BDE8F08F02F12C00029049F0A1
:103D80000BFAB5F94F30B5F94B90B5F94D8000936A
:103D9000B5F95120CDE90589CDE9032395F85730D0
:103DA0000192B5F847600B9395F85830B5F849A0E3
:103DB000099395F8593095F84670089395F85A305C
:103DC000079395F85B300C9395F85C300A935FFA93
:103DD0008AF30D930021CBE88F1F029849F0CCF9AC
:103DE000282200210DF13D0047F06EFE6FF0FE131A
:103DF000CDF86530CDF869304FF07F33CDF84230E3
:103E00004EF602630122ADF8593010238DF83C20A4
:103E10000DF13C0C04F1240E8DF85B30BCE80F0072
:103E2000AEE80F00BCE80F00AEE80F00BCE80F00E2
:103E3000AEE80F00DCF8003007F1FF3B8EF80030F1
:103E4000BBF1090F0ED8DFE81BF00A004F010D008F
:103E5000530157015B010D005F0163014B0110230A
:103E600084F8263016F0040E1CBF802384F8273017
:103E700016F0010B05D094F8273043F0400384F886
:103E8000273016F0080105D094F8273043F01003CE
:103E900084F8273016F0020205D094F8273043F05A
:103EA000200384F8273016F4807C05D094F827305E
:103EB00043F0040384F8273016F4007005D094F81A
:103EC000273043F0080384F82730730605D594F8AB
:103ED000263043F0010384F82630330605D594F8E4
:103EE000263043F0080384F82630F30605D594F80D
:103EF000263043F0020384F82630B30605D594F843
:103F0000263043F0040384F82630730544BF0123B0
:103F100084F82830330505D594F8283043F002039F
:103F200084F828305FFA8AF32BB194F8273043F0F5
:103F3000010384F827304FEA1A232BB194F8273075
:103F400043F0020384F8273040F6CE4309F2676954
:103F50001FFA89F99945A4F836A040F2BF80069B64
:103F60006D4E03F50043C3EBC3135B00A6FB0336A2
:103F7000C6F3C73640F6CE4308F267681FFA88F8E2
:103F8000984584F82A6040F2A780059B624E03F5AD
:103F90000043C3EBC3135B00A6FB0336C6F3C7366F
:103FA00084F82B6040F6CE46009B03F267639BB219
:103FB000B34240F28F80049B574E03F50043C3EB9E
:103FC000C3135B00A6FB0336C6F3C73684F82C6028
:103FD00040F6CE46019B03F267639BB2B34277D9AA
:103FE000039B4D4E03F50043C3EBC3135B00A6FBDD
:103FF0000336C6F3C73684F82D6095F86460002355
:1040000007F0010868F30703C7F3C00868F30F233C
:10401000C7F3400868F31743C7F3800767F31F63CC
:10402000DF4303F07F33C3F1803307F08037F6B20C
:104030005F4056B30B9B0C9A84F83C30089BC4F845
:10404000327084F83D30002362F307030A9A62F36A
:104050000F23079A62F31743099A62F31F63A3635E
:1040600009F0D6FC00283FF45FAE09F0D9FC00202F
:104070000AF0FAFD00283FF45DAE00213123084626
:1040800004F124020AF00CFE54E64FEA1C2C400A0C
:104090006CF30706C90860F30F26520861F3174650
:1040A00062F31F66F34306F07F36CEF3800EC6F14F
:1040B000803603F08033CBF1000BCEF1000E73405D
:1040C000C4F8327084F83CB084F83DE0A36326E67F
:1040D0007F2690E77F2679E77F2661E77F2649E7FD
:1040E000602384F82630BDE6402384F82630B9E604
:1040F000802384F82630B5E6902384F82630B1E694
:10410000C02384F82630ADE6202384F82630A9E6C3
:10411000302384F82630A5E60180008030B4032BDC
:1041200014460299BDF80C5016D0022B01D030BCB9
:1041300070472AB9002DFAD0013D11F8014BADB2FC
:10414000012CF4D1302D2A4680F8974028BF302228
:1041500030BC553048F01AB8EF2AE8D18B7980F896
:10416000963030BC704700BF024B0A4653F821100E
:10417000FFF7E0BAD84C051038B5012B0546BDF85D
:10418000144025D0032B01D0002038BD012A71D066
:1041900002F11103DBB2092BF6D8A2F1EF03092BD0
:1041A000F2D801A252F823F0154200108941001004
:1041B000894100102B4200108941001089410010F4
:1041C0003B4200108941001067420010FF4100107F
:1041D000049A00F124035430D3F800C05D689C6851
:1041E000D96810338342C2F800C055609460D16032
:1041F00002F11002F0D11B783120137038BD224635
:1042000004982A4947F0C2FF204695F89630049A50
:10421000937138BD22460498254947F0B7FF95F8B9
:104220009630049A93712046F3E72246049805F1EC
:10423000850147F0ABFF2046EBE7224604981D4975
:1042400047F0A4FF049B5B1B8E3B022B19D9D5F8CA
:104250008E30049AC2F8013095F89230537195F877
:1042600093309371DFE722460498134947F08EFF9D
:104270002046CEE722460498104947F087FF2046A3
:10428000C7E795F88E30049A537095F88F30937085
:1042900095F89030D37095F89130137195F892306D
:1042A000537195F893309371BDE700BFD44A051060
:1042B000944B0510544B0510144B0510C44B0510BE
:1042C000844610B4064C0CF1040C0FCCACE80F0083
:1042D00094E80F005DF8044B8CE80F00704700BFB6
:1042E000EC4F051000207047004870478C4F0510B8
:1042F00000487047904D051000487047644D051008
:10430000002070472DE9F04F1546044689B062320F
:10431000D2E88F3FDBB293B909F07AFB002840F076
:10432000AF8000200AF0A0FC002840F0A18094F8A3
:104330008430002B40F0828009B0BDE8F08F05F199
:104340002C000492039048F027FF95F8463095F82A
:104350004AB00193B5F94DA0B5F94F90B5F94B703E
:10436000B5F95180CDE905A995F84930CDF81C8003
:10437000B5F8476002930021049AC2E88F1F0398A2
:1043800048F0FAFE3B22002104F1290047F09CFB93
:10439000012240F6CE4184F8242007F2676292B2EF
:1043A0008A42029B75D9864A07F50047A2FB072778
:1043B000C7F3072740F6CE420AF2676A1FFA8AFA65
:1043C000924584F8257062D9059A7D4902F500422C
:1043D000A1FB0212C2F3072284F8262040F6CE4247
:1043E00009F267691FFA89F991454ED9069A74490D
:1043F00002F50042A1FB0212C2F3072284F8272033
:1044000040F6CE4208F267681FFA88F890453AD91C
:10441000079A6B4902F50042A1FB0212C2F3072280
:1044200084F82820019A013A092A00F2A280DFE8E4
:1044300002F0A5A8A0ADB2B7A0BCC13294F86880C4
:1044400094F8677005F13406304648F0A5FE85F80B
:10445000448085F8457001236335C5E88F3F3046B9
:1044600048F08AFE002384F8843009B0BDE8F08F5C
:1044700000214023084604F124020AF011FC56E70B
:1044800009F0CEFA4DE78022CAE78022B6E7802203
:10449000A2E780278EE70322132184F829207707DB
:1044A00044BF0A4684F82910F00704D542F02002E0
:1044B000D2B284F82920B10704D542F04002D2B22A
:1044C00084F82920370744BF62F07F0284F829204E
:1044D00016F480721BBF01220321022184F82A20D6
:1044E000B00544BF0A4684F82A1023B142F0040202
:1044F000D2B284F82A20BBF1000F04D042F00802A7
:10450000D2B284F82A20710604D542F01002D2B249
:1045100084F82A20370604D542F02002D2B284F86B
:104520002A20F00604D542F04002D2B284F82A20B4
:10453000B10644BF62F07F0284F82A2016F480613D
:104540000EBF02220322012116F4006F08BF0A46A3
:104550000B2184F82C3094F8853084F82DB042EA91
:104560008302013384F8421084F82B2084F88530CC
:10457000D2E60822182184F8292090E71021002291
:104580008DE70422142184F8292088E706221621C9
:1045900084F8292083E70722172184F829207EE761
:1045A0000522152184F8292079E70222122184F8B6
:1045B000292074E70122112184F829206FE700BF28
:1045C00001FF00FF10B5012BBDF80C400BD0032BF1
:1045D00018BF002000D010BD22460021029847F0ED
:1045E00073FA204610BD029A00F124036430D3F818
:1045F00000E0D3F804C09C68D96810338342C2F845
:1046000000E0C2F804C09460D16002F11002EED163
:10461000402010BD024B0A4653F82110FFF78AB81C
:10462000A04F051010B4022B0199BDF8084002D02C
:104630005DF8044B7047052A844609D0002AF7D15B
:10464000002CF5D00B78052BF2D1013C0131A4B23E
:104650000123202C22460CF1640028BF20225DF8A3
:10466000044B8CF8843047F091BD00BF704700BF09
:104670000020704700487047B85005100048704748
:1046800060500510004870473C50051000207047EE
:104690002DE9F04F02F16203174605460C4685B03E
:1046A000D3E88F2FD2B252B909F0B2F900283DD128
:1046B00020460AF0D9FA70BB05B0BDE8F08F07F1CB
:1046C0002C000393029048F067FD97F8491097F883
:1046D0004A30B7F847600191009397F846B0B7F9B0
:1046E0004BA0B7F94D90B7F94F80B7F95170002240
:1046F000039BC3E88F2F029848F03EFD0BF1FF3378
:104700000199092B00F29780DFE803F097A39599B0
:104710009B9D959FA11308230021204605EBC40211
:10472000243205B0BDE8F04F0AF0BABA09F078F9C2
:10473000BEE7032305EBC40282F8263016F004031B
:104740001ABF4FF0030C01234FF0020C16F0010FBB
:1047500016BF63469384A2F824C016F0080F4FEAF0
:10476000C40003D043F0080393849BB216F0020FF9
:1047700003D043F0040393849BB216F4807F03D0EC
:1047800043F0100393849BB216F4007F03D043F0F0
:10479000200393849BB216F0400F03D043F4807340
:1047A00093849BB216F0800F03D043F4007393847C
:1047B0009BB216F0100F03D043F4806393849BB236
:1047C00016F0200F03D043F4006393849BB216F4D9
:1047D000806F03D043F4805393849BB2360503D596
:1047E00043F4005393849BB219B143F04003938484
:1047F0009BB2009911B143F0800393840023AAF582
:10480000004ACAF3072AA9F50049C9F30729A8F500
:1048100000486AF30703C8F30728A7F5004769F3C0
:104820000F23C7F3072768F31743284467F31F6371
:10483000C0F8273038E708237CE700237AE706230F
:1048400078E7072376E7052374E7022372E701235D
:1048500070E704236EE700BF012B00D109B10020EF
:104860007047426A836A009908200A604B6070476B
:10487000024B0A4653F82110FEF75CBFCC500510DE
:10488000F0B5864680260025094C0EF1040C0FCCAD
:10489000ACE80F0094E80F00064F8CE80F00CEF84C
:1048A0002670AEF82A608EF824508EF82550F0BDA0
:1048B0000851051008808080704700BF00207047B5
:1048C0000048704788510510002070470048704725
:1048D000585105100020704710B5044602F01EFB29
:1048E00004F1040C04460FCCACE80F0094E80F0070
:1048F0008CE80F0010BD00BF2DE9F04F17460446AD
:1049000085B002F16206D6E88F3FDBB26BB90821B1
:1049100004F1380002F03CFB20B194F83830002B51
:1049200000F0AC8005B0BDE8F08F002302F12C0050
:10493000E384039048F030FCB7F84910B7F84750CB
:104940000291B7F94B2097F846A00192B7F94D9024
:10495000B7F94FB0B7F951800023C6E88F3F0398ED
:1049600048F00AFCDDE901210AF1FF33092B09D8DF
:10497000DFE803F005AF089FA3A708ABB39B0123B3
:1049800084F82630680605D594F8263043F02003D5
:1049900084F826302B0605D594F8263043F0100312
:1049A00084F82630EE0605D594F8263043F040030F
:1049B00084F82630A80605D594F8263063F07F03E6
:1049C00084F826306B0705D594F8273043F0400370
:1049D00084F82730EE0705D594F8273043F010030C
:1049E00084F82730280705D594F8273063F07F0333
:1049F00084F82730AB0705D594F8273043F020031F
:104A000084F82730EE0505D594F8273043F00103EC
:104A100084F82730A80505D594F8273043F0020321
:104A200084F827306B0522D419F5004F16BFC9F161
:104A3000000947F6FF791FFA89F918F5004F0EBFF4
:104A400047F6FF78C8F100081FFA88F821856285CB
:104A5000A4F82C90A4F82EB0A4F8308008F0D8FF69
:104A600000BB142104F1240002F05CFA4FE794F833
:104A7000273043F0040384F82730D5E7B4F83B40EF
:104A800007F13405284648F087FBA7F84440012386
:104A900007F16302C2E88F3F284605B0BDE8F04F3A
:104AA00048F06ABB08F0BCFFDBE70A2384F8263035
:104AB00068E7042384F8263064E7052384F8263069
:104AC00060E7062384F826305CE7082384F8263064
:104AD00058E7022384F8263054E7092384F8263067
:104AE00050E700BF034610B5029A596A9C6AD3F892
:104AF0002CE0D3F830C011605460C2F808E0C2F86E
:104B00000CC0596B1420116110BD00BF024B0A4646
:104B100053F82110FEF70EBE9C510510012070477E
:104B200000207047704700BF012070470048704761
:104B3000145305100020704700487047B452051008
:104B40000020704738B505460B4C05F1040C0FCC1E
:104B5000ACE80F0094E80F008CE80F00232200213E
:104B600005F1260046F0B0FF20220E2385F825200F
:104B700085F8283038BD00BF0852051010B5FF2356
:104B800000240949094A0A480B7004702146137031
:104B90000848402246F098FF2146BDE810404022D8
:104BA000054846F091BF00BF352B0020342B002074
:104BB000F4E60020BC3A00207C3A00202DE9F047C2
:104BC0000E79C6EBC6070937BFB297422FD88D784A
:104BD0008A461DBB16B30C788046DFF864900C44FF
:104BE00003E02378B5421C4418D26378052BF8D132
:104BF0002146404609F0C2FB98B1A3789AF80460B8
:104C0000DA0918BF0D4A05F1010514BF137089F8C0
:104C10000030EDB22378B5421C44E6D33846BDE8F7
:104C2000F0874FF0E023D3F8F03DDB0703D40027F3
:104C30003846BDE8F08700BEF9E700BF352B0020FD
:104C4000342B0020024B0A4653F82110FEF772BDA8
:104C5000405205102DE9F041304D2A788A4202D0A9
:104C60000120BDE8F081002BFAD02D4B04461E78C0
:104C70009F78042E14D05B78DB0608D411464023BD
:104C80002046274A09F0C0FB0120BDE8F081DFF88B
:104C9000948098F8001009F0EFFB30B32A78EDE724
:104CA000204E317809F0E8FB0028F7D1DFF8788052
:104CB0003178204609F084FBC446DFF870E0BEE896
:104CC0000F00ACE80F009EE8030042468CE80300AA
:104CD00018233178204688F8027009F095FB2046A9
:104CE000317809F07FFB2A78C8E798F80010204651
:104CF00009F066FB42F2010101230B4A20461180B4
:104D0000D37098F8001005239770167109F07CFB9A
:104D1000204698F8001009F065FBBFE7342B00200F
:104D2000BC3A0020352B00207C3A00202853051087
:104D300010B5FF2300240949094A0A480B70047082
:104D4000214613700848402246F0BEFE2146BDE8C9
:104D500010404022054846F0B7BE00BF352B00206A
:104D6000342B0020F4E60020BC3A00207C3A0020DE
:104D700010B5FF2300240949094A0A480B70137033
:104D8000214604704022084846F09EFE40222146FB
:104D9000064846F099FE012010BD00BF352B0020CB
:104DA000342B0020F4E60020BC3A00207C3A00209E
:104DB00038B508F025FE00B938BD08F029FE0028F6
:104DC000FAD10C4C2178FF29F6D009F055FB0546A5
:104DD0000028F1D1217809F0F3FA21784023284600
:104DE000054A09F011FB28462178BDE8384009F052
:104DF000F9BA00BF342B0020BC3A00202DE9F04F57
:104E0000894E04463378154685B053B1FFF7D0FF7D
:104E100005F16202D2E88F3FDBB2B3B905B0BDE85D
:104E2000F08F08F0EDFD0028F0D008F0F1FD00282B
:104E3000ECD17E4F3B78FF2BE8D008F0E1FD002855
:104E400040F0D58001233370E0E705F12C00039298
:104E5000029048F0A1F995F8463095F849900193F1
:104E6000B5F8476095F84A80B5F94BB0B5F94D7083
:104E7000B5F94FA0B5F951500021039AC2E88F1F30
:104E8000029848F079F9002194F82720019B01321B
:104E9000D2B284F8291084F82720990784F82420B6
:104EA00003F0010248BF42F00202580784F82A20AA
:104EB00044BF42F0040284F82A201907C6F3C01345
:104EC00048BF42F008024FEA8303DBB248BF84F8D0
:104ED0002A20720648BF43F00803F00784F82930FF
:104EE00044BF43F0100384F82930B10744BF43F0B6
:104EF000200384F82930720744BF43F0400384F84C
:104F00002930300744BF43F0800384F8293071050D
:104F100044BF43F0020384F82930320544BF43F014
:104F2000010384F82930F00505D594F82A3043F0C0
:104F3000100384F82A30B10505D594F82A3043F0DF
:104F4000200384F82A30F20605D594F82A3043F07D
:104F5000400384F82A30B30605D594F82A3063F06C
:104F60007F0384F82A3017F5004F16BF7F4247F6BB
:104F7000FF77BFB215F5004F0EBF47F6FF756D42C4
:104F8000ADB24FEA89094FEA8808A4F82FB0A4F817
:104F90002B90A4F82D80A4F83170A4F833A0A4F8C5
:104FA000355008F02DFD00283FF438AF08F030FDF3
:104FB00000287FF433AF1D4D2978FF293FF42EAF31
:104FC00009F05AFA064600287FF428AF297809F03C
:104FD000F7F929781223304604F1250209F014FA72
:104FE0003046297805B0BDE8F04F09F0FBB908F06C
:104FF0000FFD00287FF426AF3978FF293FF422AF58
:1050000009F03AFA804600287FF41CAF397809F09D
:10501000D7F9397818234046054A09F0F5F9404692
:10502000397809F0DFF90DE7F4E60020352B002090
:1050300028520510704700BF002070470048704795
:10504000A0530510002070470048704770530510AA
:105050000020704710B5044601F060FF04F1040C15
:1050600004460FCCACE80F0094E80F008CE80F006A
:1050700010BD00BF2DE9F04F1546044685B002F182
:105080006207D7E88F3FDBB26BB9082104F1380023
:1050900001F07EFF20B194F83830002B00F0B18091
:1050A00005B0BDE8F08F002205F12C00C4F82620E1
:1050B000029048F071F8B5F94B10B5F94F80B5F88A
:1050C00047600191B5F95D30B5F95190C34695F847
:1050D00046A003930022C7E88F2F029848F04CF8AF
:1050E0001AF0010F019905D094F8262042F0010230
:1050F00084F826201AF0020F05D094F8262042F0FA
:10510000020284F826201AF0040F05D094F8262015
:1051100042F0040284F826201AF0080F05D094F813
:10512000262042F0080284F82620770605D594F858
:10513000262042F0200284F82620300605D594F877
:10514000262042F0100284F82620720505D594F836
:10515000272042F0040284F82720F30705D594F8AD
:10516000272042F0100284F82720B70705D594F8CD
:10517000272042F0200284F82720700705D594F8F4
:10518000272062F07F0284F82720320705D594F8A3
:10519000272042F0400284F82720F30505D594F833
:1051A000272042F0010284F82720244A61851178E3
:1051B000039BC9BBB3F5D27F3BDA0121117047F6DF
:1051C000FF7208F57A681FFA88F8B8F5FA5F98BF99
:1051D0004FF0000B19F5004F0EBF47F6FF79C9F1EC
:1051E00000091FFA89F9A285A4F82EB0A4F830901E
:1051F00008F00EFCF8B9142104F1240001F092FE2D
:1052000043E7B4F83B4005F13406304647F0C4FFAD
:10521000A5F8444001236335C5E88F3F304605B00B
:10522000BDE8F04F47F0A8BFB3F5DC7FC7DD002134
:1052300011700022C5E708F0F3FBDCE7F8E6002078
:10524000034610B5029A596A9C6AD3F82CE0D3F849
:1052500030C011605460C2F808E0C2F80CC0596B4D
:105260001420116110BD00BF024B0A4653F82110F3
:10527000FEF760BAB4530510704700BF004870478E
:1052800054540510002070470048704734540510EE
:105290000020704770B50C4615461E4601F08CFF85
:1052A0000346324629462046BDE870405B691847F0
:1052B00070B50446002001F079FF01F07DFF8446BF
:1052C0000025BCE80F00142604F1040EAEE80F0020
:1052D0009CE80F008EE80F006562A562E562256319
:1052E000656384F8256070BD2DE9F04F14460546CE
:1052F00089B002F16207D7E88F3FDBB25BB90622C3
:10530000002005F1380101F0ABFF002840F0AB8030
:1053100009B0BDE8F08F4FF0000B02F12C00C5F88A
:1053200026B0C5F82AB0049047F036FFB4F849100B
:10533000B4F847600391B4F94B2094F846A0029268
:10534000B4F94F30B4F94D900193D4F85730B4F913
:105350005180059394F85B30069394F85C30079382
:10536000C7E88FBF04980AF1FF3A47F005FFDDE96F
:1053700001320399BAF1090F09D8DFE80AF0059B59
:10538000089FA3A708ABAF97012085F826007706F2
:1053900005D595F8260040F0200085F82600300657
:1053A00005D595F8260040F0100085F82600F70690
:1053B00005D595F8260040F0400085F82600B00697
:1053C00005D595F8260060F07F0085F8260094F852
:1053D0006400C0B200285DD1770744BFFF2085F884
:1053E0002A00F00744BFFF2085F82800370744BF94
:1053F000FF2085F82B00B00744BFFF2085F8290067
:10540000F70544BFFF2085F82D00B00544BFFF20FD
:1054100085F82C0019F5004F16BFC9F1000947F6B1
:10542000FF791FFA89F918F5004F0EBF47F6FF788C
:10543000C8F100081FFA88F8E9852A86A5F8329095
:10544000AB86A5F8368008F0E3FA60BB002001F0D7
:10545000B7FE00283FF453AF142205F124010020C9
:1054600001F0C8FE4BE76E8FAD8F04F1340738466C
:10547000360A2D0A47F090FE84F8446084F84550BF
:1054800001236334C4E88F3F384609B0BDE8F04FCC
:1054900047F072BE0598A862069885F82D00079817
:1054A00085F82C00B6E708F0BBFACFE70A2085F8AC
:1054B00026006CE7022085F8260068E7042085F8BE
:1054C000260064E7052085F8260060E7062085F8B9
:1054D00026005CE7082085F8260058E7092085F8B3
:1054E000260054E7034610B5029A596A9C6AD3F81D
:1054F0002CE0D3F830C011605460C2F808E0C2F864
:105500000CC0596B1420116110BD00BF024B0A463C
:1055100053F82110FEF70EB968540510704700BF0C
:10552000004870476C5505100020704700487047D0
:105530002C5505100020704770B50C4615461E46C8
:1055400001F03AFE0346324629462046BDE8704047
:105550005B6918472DE9F0410446012001F026FE61
:1055600001F02AFE84460026BCE80F004FF01A081E
:10557000082704F1040EAEE80F009CE80F008EE847
:105580000F00C4F83560C4F8396084F84D6084F8C1
:10559000368084F84E70D4F83930D4F83520B4F819
:1055A0004D10C4F83D60C4F84160C4F84560C4F8CB
:1055B0004960C4F85330C4F84F20C4F85730C4F8D9
:1055C0005B30C4F85F30C4F86330A4F86710BDE8FE
:1055D000F08100BF034610B5029AD3F835C0D3F866
:1055E0003910D3F83D40D3F841E0C2F800C0516013
:1055F0009460C2F80CE0D3F845C0D3F84910C2F863
:1056000010C05161B3F84D301A20138310BD00BF94
:10561000024B0A4653F82110FEF78CB84C55051082
:105620002DE9F04F154602F12C088BB00446404698
:1056300047F0B2FD95F8463095F849B0009395F8DB
:105640004A30B5F847600293B5F94B300393B5F98A
:105650004D300493B5F94F300193B5F951A00027AF
:1056600005F16203C3E88F7F404605F13C0847F02F
:1056700083FD404647F090FDB5F85F304046ADF8F9
:10568000203095F861308DF8223047F075FD089B89
:10569000C4F83770ADF824301B0C8DF82630099B08
:1056A0003206ADF820304FEA13438DF82230089BC4
:1056B000ADF818304FEA13438DF81A30B4F83B3088
:1056C00023F00303A4F83B309BB204D5402184F8B7
:1056D000387084F83710F70505D5B4F8371041F065
:1056E0000201A4F83710B00605D5B4F8371041F020
:1056F0000401A4F83710B10705D5B4F8371041F00C
:105700000401A4F83710B20505D5B4F8371041F0FC
:105710000101A4F83710F70705D5B4F8371041F0A8
:105720000101A4F83710700505D5B4F8371041F021
:105730000801A4F8371016F0100E1CBF43F0020346
:10574000A4F83B30310705D5002384F83A30042310
:1057500084F839309DF818909DF819709DF81A80DA
:1057600007EB090010EB080000F0A1807A4B6521DF
:1057700003F1720CCDF814A007E011EA090F0AD169
:1057800006339C4516D033F8061C1029F5D98F42F4
:1057900001D08845F4D113F8022C33F804AC04EBA3
:1057A0004202B2F83710063341EA0A019C45A2F8DA
:1057B0003710E8D1272FDDF814A000F0E381B8F10D
:1057C000270F00F07C830021644B372F197000F005
:1057D0002882B8F1370F00F0ED84262F597000F0C1
:1057E0000482B8F1260F00F003850021362F99704E
:1057F00000F04682B8F1360F00F0E1840021462F18
:10580000D97003D0B8F1460F40F00582197949B933
:105810004FF0010CB4F83B1083F804C081F0100184
:10582000A4F83B1019F0010140F0BD8159717307D4
:105830001ED594F87230190705D0B4F8393043F00A
:105840000203A4F8393094F877301A0705D0B4F879
:10585000393043F40063A4F8393094F871300F2BD9
:1058600005D9B4F8393043F00103A4F8393020B336
:1058700019F0080F01D1730666D5172F00F040828A
:10588000B8F1170F40F0BE82B4F83930162F43F448
:105890008053A4F8393000F08E83152F40F03F84F8
:1058A000B4F8393043F48043A4F8393007E02B4B87
:1058B0007207186018715871BBD4700648D5009BE8
:1058C00013F001032AD094F83430002B40F02E81DD
:1058D0004FEA0B23A4F84730029B09EB070B1B028E
:1058E0001BEB080BA4F84B303AD0712F00F09681D7
:1058F000B8F1710F0CBF4FF47F43002319F0080F6C
:10590000A4F8493032D1710630D4009B5A0700F117
:1059100045811B072AD547F6FF7328E0009A9107B7
:1059200016D594F834100029D2D084F8343094F984
:105930004D300F33594201F00F0103F00F0358BFF0
:105940004B4284F84D30C3E719F0040F40F0F88162
:10595000012384F83430BBE7BE540510DC3D002041
:10596000710684F849B084F84AB0CED5002341F6D8
:105970004C51A4F84130BDF80C300198A4F84330E4
:10598000BDF81030626AA4F8453080EAE073A3EBFA
:10599000E0739BB28B4204D9A38D90FBF3F31A44BE
:1059A00062621AF5004FA36A79D041F64C50CAF1F1
:1059B000000A0FFA8AFA8AEAEA71A1EBEA7189B25F
:1059C000814205D9A18D9AFBF1FAA3EB0A03A362E8
:1059D000002A61DBB2F5803FA4BF4FF6FF7262621E
:1059E000B3F5803F53DB4FF6FF73A362BEF1000FA8
:1059F00039D0BF4A916ABF4AA2FB0121226BC2EB98
:105A00009112B2F5FA7F00F28B80A28C9BB2A4F8BF
:105A10003D20A4F83F3007F0FBFF002834D10020E0
:105A200001F0CEFB50B104F14F0A04F135061A2201
:105A30003146504645F09CFF00287ED1BBF1000F57
:105A400002D019F0040F2DD11622002004F16901B3
:105A500001F006FC20B194F86A30162B00F0ED80BE
:105A60000BB0BDE8F08FA24AA249926A9BB2A1FB9B
:105A7000021292092263A28CA4F83F30A4F83D20C0
:105A800007F0C6FF0028CAD007F0CAFFC7E7002BFF
:105A9000BCBF0023A362A9E700226262A0E747F629
:105AA000FF7A8FE7662F00F0C680B8F1660F00F02E
:105AB000C280672F74D0B8F1670F71D0112F00F03A
:105AC0001582B8F1110F00F01182122F00F09781AA
:105AD000B8F1120F00F09381132F00F0AE82B8F1ED
